{
  "_format": "hh-sol-artifact-1",
  "contractName": "StudPotato",
  "sourceName": "contracts/NFT.sol",
  "abi": [
    {
      "inputs": [],
      "stateMutability": "nonpayable",
      "type": "constructor"
    },
    {
      "anonymous": false,
      "inputs": [
        {
          "indexed": true,
          "internalType": "address",
          "name": "owner",
          "type": "address"
        },
        {
          "indexed": true,
          "internalType": "address",
          "name": "approved",
          "type": "address"
        },
        {
          "indexed": true,
          "internalType": "uint256",
          "name": "tokenId",
          "type": "uint256"
        }
      ],
      "name": "Approval",
      "type": "event"
    },
    {
      "anonymous": false,
      "inputs": [
        {
          "indexed": true,
          "internalType": "address",
          "name": "owner",
          "type": "address"
        },
        {
          "indexed": true,
          "internalType": "address",
          "name": "operator",
          "type": "address"
        },
        {
          "indexed": false,
          "internalType": "bool",
          "name": "approved",
          "type": "bool"
        }
      ],
      "name": "ApprovalForAll",
      "type": "event"
    },
    {
      "anonymous": false,
      "inputs": [
        {
          "indexed": true,
          "internalType": "address",
          "name": "previousOwner",
          "type": "address"
        },
        {
          "indexed": true,
          "internalType": "address",
          "name": "newOwner",
          "type": "address"
        }
      ],
      "name": "OwnershipTransferred",
      "type": "event"
    },
    {
      "anonymous": false,
      "inputs": [
        {
          "indexed": false,
          "internalType": "uint256",
          "name": "prevTokenId",
          "type": "uint256"
        },
        {
          "indexed": false,
          "internalType": "uint256",
          "name": "newTokenId",
          "type": "uint256"
        },
        {
          "indexed": false,
          "internalType": "address",
          "name": "consumer",
          "type": "address"
        }
      ],
      "name": "ProductReplaced",
      "type": "event"
    },
    {
      "anonymous": false,
      "inputs": [
        {
          "indexed": false,
          "internalType": "uint256",
          "name": "tokenId",
          "type": "uint256"
        },
        {
          "indexed": false,
          "internalType": "address",
          "name": "consumer",
          "type": "address"
        }
      ],
      "name": "ProductReturned",
      "type": "event"
    },
    {
      "anonymous": false,
      "inputs": [
        {
          "indexed": true,
          "internalType": "address",
          "name": "from",
          "type": "address"
        },
        {
          "indexed": true,
          "internalType": "address",
          "name": "to",
          "type": "address"
        },
        {
          "indexed": true,
          "internalType": "uint256",
          "name": "tokenId",
          "type": "uint256"
        }
      ],
      "name": "Transfer",
      "type": "event"
    },
    {
      "inputs": [
        {
          "internalType": "address",
          "name": "to",
          "type": "address"
        },
        {
          "internalType": "uint256",
          "name": "tokenId",
          "type": "uint256"
        }
      ],
      "name": "approve",
      "outputs": [],
      "stateMutability": "nonpayable",
      "type": "function"
    },
    {
      "inputs": [
        {
          "internalType": "address",
          "name": "owner",
          "type": "address"
        }
      ],
      "name": "balanceOf",
      "outputs": [
        {
          "internalType": "uint256",
          "name": "",
          "type": "uint256"
        }
      ],
      "stateMutability": "view",
      "type": "function"
    },
    {
      "inputs": [
        {
          "internalType": "uint256",
          "name": "tokenId",
          "type": "uint256"
        }
      ],
      "name": "burn",
      "outputs": [],
      "stateMutability": "nonpayable",
      "type": "function"
    },
    {
      "inputs": [
        {
          "internalType": "uint256",
          "name": "tokenId",
          "type": "uint256"
        }
      ],
      "name": "burnToken",
      "outputs": [],
      "stateMutability": "nonpayable",
      "type": "function"
    },
    {
      "inputs": [
        {
          "internalType": "uint256",
          "name": "tokenId",
          "type": "uint256"
        }
      ],
      "name": "getApproved",
      "outputs": [
        {
          "internalType": "address",
          "name": "",
          "type": "address"
        }
      ],
      "stateMutability": "view",
      "type": "function"
    },
    {
      "inputs": [],
      "name": "getLatestTokenId",
      "outputs": [
        {
          "internalType": "uint256",
          "name": "",
          "type": "uint256"
        }
      ],
      "stateMutability": "view",
      "type": "function"
    },
    {
      "inputs": [
        {
          "internalType": "uint256",
          "name": "tokenId",
          "type": "uint256"
        }
      ],
      "name": "getOwnerFromTokenId",
      "outputs": [
        {
          "internalType": "address",
          "name": "",
          "type": "address"
        }
      ],
      "stateMutability": "view",
      "type": "function"
    },
    {
      "inputs": [
        {
          "internalType": "uint256",
          "name": "tokenId",
          "type": "uint256"
        }
      ],
      "name": "getReturnInfoFromTokenId",
      "outputs": [
        {
          "internalType": "uint256",
          "name": "price",
          "type": "uint256"
        },
        {
          "internalType": "uint256",
          "name": "dateOfPurchase",
          "type": "uint256"
        }
      ],
      "stateMutability": "view",
      "type": "function"
    },
    {
      "inputs": [
        {
          "internalType": "uint256",
          "name": "tokenId",
          "type": "uint256"
        }
      ],
      "name": "getSellerFromTokenId",
      "outputs": [
        {
          "internalType": "address",
          "name": "",
          "type": "address"
        }
      ],
      "stateMutability": "view",
      "type": "function"
    },
    {
      "inputs": [
        {
          "internalType": "uint256",
          "name": "tokenId",
          "type": "uint256"
        }
      ],
      "name": "getValidityFromTokenId",
      "outputs": [
        {
          "internalType": "uint256",
          "name": "",
          "type": "uint256"
        }
      ],
      "stateMutability": "view",
      "type": "function"
    },
    {
      "inputs": [
        {
          "internalType": "address",
          "name": "owner",
          "type": "address"
        },
        {
          "internalType": "address",
          "name": "operator",
          "type": "address"
        }
      ],
      "name": "isApprovedForAll",
      "outputs": [
        {
          "internalType": "bool",
          "name": "",
          "type": "bool"
        }
      ],
      "stateMutability": "view",
      "type": "function"
    },
    {
      "inputs": [],
      "name": "name",
      "outputs": [
        {
          "internalType": "string",
          "name": "",
          "type": "string"
        }
      ],
      "stateMutability": "view",
      "type": "function"
    },
    {
      "inputs": [],
      "name": "owner",
      "outputs": [
        {
          "internalType": "address",
          "name": "",
          "type": "address"
        }
      ],
      "stateMutability": "view",
      "type": "function"
    },
    {
      "inputs": [
        {
          "internalType": "uint256",
          "name": "tokenId",
          "type": "uint256"
        }
      ],
      "name": "ownerOf",
      "outputs": [
        {
          "internalType": "address",
          "name": "",
          "type": "address"
        }
      ],
      "stateMutability": "view",
      "type": "function"
    },
    {
      "inputs": [],
      "name": "renounceOwnership",
      "outputs": [],
      "stateMutability": "nonpayable",
      "type": "function"
    },
    {
      "inputs": [
        {
          "internalType": "uint256",
          "name": "tokenId",
          "type": "uint256"
        },
        {
          "internalType": "string",
          "name": "_uri",
          "type": "string"
        }
      ],
      "name": "replaceProduct",
      "outputs": [],
      "stateMutability": "nonpayable",
      "type": "function"
    },
    {
      "inputs": [
        {
          "internalType": "uint256",
          "name": "tokenId",
          "type": "uint256"
        }
      ],
      "name": "returnProduct",
      "outputs": [],
      "stateMutability": "nonpayable",
      "type": "function"
    },
    {
      "inputs": [
        {
          "internalType": "address",
          "name": "to",
          "type": "address"
        },
        {
          "internalType": "string",
          "name": "uri",
          "type": "string"
        },
        {
          "internalType": "address",
          "name": "_seller",
          "type": "address"
        },
        {
          "internalType": "uint256",
          "name": "_validity",
          "type": "uint256"
        },
        {
          "internalType": "uint256",
          "name": "_price",
          "type": "uint256"
        }
      ],
      "name": "safeMint",
      "outputs": [],
      "stateMutability": "payable",
      "type": "function"
    },
    {
      "inputs": [
        {
          "internalType": "address",
          "name": "from",
          "type": "address"
        },
        {
          "internalType": "address",
          "name": "to",
          "type": "address"
        },
        {
          "internalType": "uint256",
          "name": "tokenId",
          "type": "uint256"
        }
      ],
      "name": "safeTransferFrom",
      "outputs": [],
      "stateMutability": "nonpayable",
      "type": "function"
    },
    {
      "inputs": [
        {
          "internalType": "address",
          "name": "from",
          "type": "address"
        },
        {
          "internalType": "address",
          "name": "to",
          "type": "address"
        },
        {
          "internalType": "uint256",
          "name": "tokenId",
          "type": "uint256"
        },
        {
          "internalType": "bytes",
          "name": "data",
          "type": "bytes"
        }
      ],
      "name": "safeTransferFrom",
      "outputs": [],
      "stateMutability": "nonpayable",
      "type": "function"
    },
    {
      "inputs": [
        {
          "internalType": "uint256",
          "name": "tokenId",
          "type": "uint256"
        }
      ],
      "name": "sendMoneyToSeller",
      "outputs": [],
      "stateMutability": "nonpayable",
      "type": "function"
    },
    {
      "inputs": [
        {
          "internalType": "address",
          "name": "operator",
          "type": "address"
        },
        {
          "internalType": "bool",
          "name": "approved",
          "type": "bool"
        }
      ],
      "name": "setApprovalForAll",
      "outputs": [],
      "stateMutability": "nonpayable",
      "type": "function"
    },
    {
      "inputs": [
        {
          "internalType": "bytes4",
          "name": "interfaceId",
          "type": "bytes4"
        }
      ],
      "name": "supportsInterface",
      "outputs": [
        {
          "internalType": "bool",
          "name": "",
          "type": "bool"
        }
      ],
      "stateMutability": "view",
      "type": "function"
    },
    {
      "inputs": [],
      "name": "symbol",
      "outputs": [
        {
          "internalType": "string",
          "name": "",
          "type": "string"
        }
      ],
      "stateMutability": "view",
      "type": "function"
    },
    {
      "inputs": [
        {
          "internalType": "uint256",
          "name": "tokenId",
          "type": "uint256"
        }
      ],
      "name": "tokenURI",
      "outputs": [
        {
          "internalType": "string",
          "name": "",
          "type": "string"
        }
      ],
      "stateMutability": "view",
      "type": "function"
    },
    {
      "inputs": [
        {
          "internalType": "address",
          "name": "from",
          "type": "address"
        },
        {
          "internalType": "address",
          "name": "to",
          "type": "address"
        },
        {
          "internalType": "uint256",
          "name": "tokenId",
          "type": "uint256"
        }
      ],
      "name": "transferFrom",
      "outputs": [],
      "stateMutability": "nonpayable",
      "type": "function"
    },
    {
      "inputs": [
        {
          "internalType": "address",
          "name": "newOwner",
          "type": "address"
        }
      ],
      "name": "transferOwnership",
      "outputs": [],
      "stateMutability": "nonpayable",
      "type": "function"
    }
  ],
  "bytecode": "0x60806040523480156200001157600080fd5b506040518060400160405280600b81526020017f537475642d506f7461746f0000000000000000000000000000000000000000008152506040518060400160405280600481526020017f5354445000000000000000000000000000000000000000000000000000000000815250816000908051906020019062000096929190620001a6565b508060019080519060200190620000af929190620001a6565b505050620000d2620000c6620000d860201b60201c565b620000e060201b60201c565b620002bb565b600033905090565b6000600760009054906101000a900473ffffffffffffffffffffffffffffffffffffffff16905081600760006101000a81548173ffffffffffffffffffffffffffffffffffffffff021916908373ffffffffffffffffffffffffffffffffffffffff1602179055508173ffffffffffffffffffffffffffffffffffffffff168173ffffffffffffffffffffffffffffffffffffffff167f8be0079c531659141344cd1fd0a4f28419497f9722a3daafe3b4186f6b6457e060405160405180910390a35050565b828054620001b49062000256565b90600052602060002090601f016020900481019282620001d8576000855562000224565b82601f10620001f357805160ff191683800117855562000224565b8280016001018555821562000224579182015b828111156200022357825182559160200191906001019062000206565b5b50905062000233919062000237565b5090565b5b808211156200025257600081600090555060010162000238565b5090565b600060028204905060018216806200026f57607f821691505b602082108114156200028657620002856200028c565b5b50919050565b7f4e487b7100000000000000000000000000000000000000000000000000000000600052602260045260246000fd5b613fc680620002cb6000396000f3fe60806040526004361061019c5760003560e01c8063715018a6116100ec578063b88d4fde1161008a578063e985e9c511610064578063e985e9c5146105c5578063f2fde38b14610602578063f4b355561461062b578063f4b4a626146106695761019c565b8063b88d4fde14610536578063bf53bb4a1461055f578063c87b56dd146105885761019c565b80638da5cb5b116100c65780638da5cb5b1461047a57806395d89b41146104a5578063a22cb465146104d0578063aac571e7146104f95761019c565b8063715018a61461041e5780637b47ec1a14610435578063895014e21461045e5761019c565b8063202f32481161015957806342842e0e1161013357806342842e0e1461035257806342966c681461037b5780636352211e146103a457806370a08231146103e15761019c565b8063202f3248146102c157806323b872dd146102fe57806325d112a9146103275761019c565b806301ffc9a7146101a157806306fdde03146101de578063081812fc14610209578063095ea7b314610246578063131e407d1461026f578063132c4a1914610298575b600080fd5b3480156101ad57600080fd5b506101c860048036038101906101c39190612ca8565b6106a6565b6040516101d5919061322f565b60405180910390f35b3480156101ea57600080fd5b506101f3610788565b604051610200919061324a565b60405180910390f35b34801561021557600080fd5b50610230600480360381019061022b9190612cfa565b61081a565b60405161023d91906131c8565b60405180910390f35b34801561025257600080fd5b5061026d60048036038101906102689190612c6c565b610860565b005b34801561027b57600080fd5b5061029660048036038101906102919190612cfa565b610978565b005b3480156102a457600080fd5b506102bf60048036038101906102ba9190612d23565b610b9c565b005b3480156102cd57600080fd5b506102e860048036038101906102e39190612cfa565b610d3e565b6040516102f591906131c8565b60405180910390f35b34801561030a57600080fd5b5061032560048036038101906103209190612ad7565b610d7b565b005b34801561033357600080fd5b5061033c610ddb565b604051610349919061354c565b60405180910390f35b34801561035e57600080fd5b5061037960048036038101906103749190612ad7565b610dec565b005b34801561038757600080fd5b506103a2600480360381019061039d9190612cfa565b610e0c565b005b3480156103b057600080fd5b506103cb60048036038101906103c69190612cfa565b610e68565b6040516103d891906131c8565b60405180910390f35b3480156103ed57600080fd5b5061040860048036038101906104039190612a72565b610f1a565b604051610415919061354c565b60405180910390f35b34801561042a57600080fd5b50610433610fd2565b005b34801561044157600080fd5b5061045c60048036038101906104579190612cfa565b610fe6565b005b61047860048036038101906104739190612bdd565b6110cd565b005b34801561048657600080fd5b5061048f6111ba565b60405161049c91906131c8565b60405180910390f35b3480156104b157600080fd5b506104ba6111e4565b6040516104c7919061324a565b60405180910390f35b3480156104dc57600080fd5b506104f760048036038101906104f29190612ba1565b611276565b005b34801561050557600080fd5b50610520600480360381019061051b9190612cfa565b61128c565b60405161052d91906131c8565b60405180910390f35b34801561054257600080fd5b5061055d60048036038101906105589190612b26565b61129e565b005b34801561056b57600080fd5b5061058660048036038101906105819190612cfa565b611300565b005b34801561059457600080fd5b506105af60048036038101906105aa9190612cfa565b611580565b6040516105bc919061324a565b60405180910390f35b3480156105d157600080fd5b506105ec60048036038101906105e79190612a9b565b611592565b6040516105f9919061322f565b60405180910390f35b34801561060e57600080fd5b5061062960048036038101906106249190612a72565b611626565b005b34801561063757600080fd5b50610652600480360381019061064d9190612cfa565b6116aa565b604051610660929190613590565b60405180910390f35b34801561067557600080fd5b50610690600480360381019061068b9190612cfa565b6116e4565b60405161069d919061354c565b60405180910390f35b60007f80ac58cd000000000000000000000000000000000000000000000000000000007bffffffffffffffffffffffffffffffffffffffffffffffffffffffff1916827bffffffffffffffffffffffffffffffffffffffffffffffffffffffff1916148061077157507f5b5e139f000000000000000000000000000000000000000000000000000000007bffffffffffffffffffffffffffffffffffffffffffffffffffffffff1916827bffffffffffffffffffffffffffffffffffffffffffffffffffffffff1916145b80610781575061078082611701565b5b9050919050565b60606000805461079790613836565b80601f01602080910402602001604051908101604052809291908181526020018280546107c390613836565b80156108105780601f106107e557610100808354040283529160200191610810565b820191906000526020600020905b8154815290600101906020018083116107f357829003601f168201915b5050505050905090565b60006108258261176b565b6004600083815260200190815260200160002060009054906101000a900473ffffffffffffffffffffffffffffffffffffffff169050919050565b600061086b82610e68565b90508073ffffffffffffffffffffffffffffffffffffffff168373ffffffffffffffffffffffffffffffffffffffff1614156108dc576040517f08c379a00000000000000000000000000000000000000000000000000000000081526004016108d3906134cc565b60405180910390fd5b8073ffffffffffffffffffffffffffffffffffffffff166108fb6117b6565b73ffffffffffffffffffffffffffffffffffffffff16148061092a5750610929816109246117b6565b611592565b5b610969576040517f08c379a00000000000000000000000000000000000000000000000000000000081526004016109609061342c565b60405180910390fd5b61097383836117be565b505050565b6009600082815260200190815260200160002060009054906101000a900473ffffffffffffffffffffffffffffffffffffffff1673ffffffffffffffffffffffffffffffffffffffff163373ffffffffffffffffffffffffffffffffffffffff1614610a19576040517f08c379a0000000000000000000000000000000000000000000000000000000008152600401610a10906132ac565b60405180910390fd5b620d2f00600b600083815260200190815260200160002060010154610a3e91906136c5565b421115610a80576040517f08c379a0000000000000000000000000000000000000000000000000000000008152600401610a779061348c565b60405180910390fd5b6000600b60008381526020019081526020016000206000015490506000610aa683610e68565b9050610ab183610fe6565b60008173ffffffffffffffffffffffffffffffffffffffff1683604051610ad7906131b3565b60006040518083038185875af1925050503d8060008114610b14576040519150601f19603f3d011682016040523d82523d6000602084013e610b19565b606091505b5050905080610b5d576040517f08c379a0000000000000000000000000000000000000000000000000000000008152600401610b54906133ac565b60405180910390fd5b7f478dc6d37edc125e74f01c53ecdf42cf8575815cdf2c5f31a566852d22a0c4db8483604051610b8e929190613567565b60405180910390a150505050565b3373ffffffffffffffffffffffffffffffffffffffff166009600084815260200190815260200160002060009054906101000a900473ffffffffffffffffffffffffffffffffffffffff1673ffffffffffffffffffffffffffffffffffffffff1614610c3d576040517f08c379a0000000000000000000000000000000000000000000000000000000008152600401610c34906132ac565b60405180910390fd5b42600a60008481526020019081526020016000205411610c92576040517f08c379a0000000000000000000000000000000000000000000000000000000008152600401610c899061326c565b60405180910390fd5b610cbb610c9e83610e68565b8233600a60008781526020019081526020016000205460006110cd565b6000610cc5610ddb565b9050600b600082815260200190815260200160002060008082016000905560018201600090555050610cf683610fe6565b7f9298136f3ad864f7e2c8714edea29350bb10518e043edbee68c56f68f0ad2d138382610d2284610e68565b604051610d31939291906135b9565b60405180910390a1505050565b60006009600083815260200190815260200160002060009054906101000a900473ffffffffffffffffffffffffffffffffffffffff169050919050565b610d8c610d866117b6565b82611877565b610dcb576040517f08c379a0000000000000000000000000000000000000000000000000000000008152600401610dc29061352c565b60405180910390fd5b610dd683838361190c565b505050565b6000610de76008611b73565b905090565b610e078383836040518060200160405280600081525061129e565b505050565b610e1d610e176117b6565b82611877565b610e5c576040517f08c379a0000000000000000000000000000000000000000000000000000000008152600401610e539061352c565b60405180910390fd5b610e6581611b81565b50565b6000806002600084815260200190815260200160002060009054906101000a900473ffffffffffffffffffffffffffffffffffffffff169050600073ffffffffffffffffffffffffffffffffffffffff168173ffffffffffffffffffffffffffffffffffffffff161415610f11576040517f08c379a0000000000000000000000000000000000000000000000000000000008152600401610f08906134ac565b60405180910390fd5b80915050919050565b60008073ffffffffffffffffffffffffffffffffffffffff168273ffffffffffffffffffffffffffffffffffffffff161415610f8b576040517f08c379a0000000000000000000000000000000000000000000000000000000008152600401610f82906133cc565b60405180910390fd5b600360008373ffffffffffffffffffffffffffffffffffffffff1673ffffffffffffffffffffffffffffffffffffffff168152602001908152602001600020549050919050565b610fda611b8d565b610fe46000611c0b565b565b610ff03382611877565b61102f576040517f08c379a0000000000000000000000000000000000000000000000000000000008152600401611026906133ec565b60405180910390fd5b61103881611b81565b6009600082815260200190815260200160002060006101000a81549073ffffffffffffffffffffffffffffffffffffffff02191690556000600b600083815260200190815260200160002060010154146110b357600b6000828152602001908152602001600020600080820160009055600182016000905550505b600a60008281526020019081526020016000206000905550565b6110d76008611cd1565b60006110e36008611b73565b90506110ef8682611ce7565b6110f98186611d05565b61110384826117be565b836009600083815260200190815260200160002060006101000a81548173ffffffffffffffffffffffffffffffffffffffff021916908373ffffffffffffffffffffffffffffffffffffffff16021790555082600a6000838152602001908152602001600020819055506000604051806040016040528084815260200142815250905080600b6000848152602001908152602001600020600082015181600001556020820151816001015590505050505050505050565b6000600760009054906101000a900473ffffffffffffffffffffffffffffffffffffffff16905090565b6060600180546111f390613836565b80601f016020809104026020016040519081016040528092919081815260200182805461121f90613836565b801561126c5780601f106112415761010080835404028352916020019161126c565b820191906000526020600020905b81548152906001019060200180831161124f57829003601f168201915b5050505050905090565b6112886112816117b6565b8383611d79565b5050565b600061129782610e68565b9050919050565b6112af6112a96117b6565b83611877565b6112ee576040517f08c379a00000000000000000000000000000000000000000000000000000000081526004016112e59061352c565b60405180910390fd5b6112fa84848484611ee6565b50505050565b6009600082815260200190815260200160002060009054906101000a900473ffffffffffffffffffffffffffffffffffffffff1673ffffffffffffffffffffffffffffffffffffffff163373ffffffffffffffffffffffffffffffffffffffff16146113a1576040517f08c379a00000000000000000000000000000000000000000000000000000000081526004016113989061350c565b60405180910390fd5b6000600b60008381526020019081526020016000206000015414156113fb576040517f08c379a00000000000000000000000000000000000000000000000000000000081526004016113f29061334c565b60405180910390fd5b42620d2f00600b60008481526020019081526020016000206001015461142191906136c5565b10611461576040517f08c379a0000000000000000000000000000000000000000000000000000000008152600401611458906134ec565b60405180910390fd5b60006009600083815260200190815260200160002060009054906101000a900473ffffffffffffffffffffffffffffffffffffffff1673ffffffffffffffffffffffffffffffffffffffff16600b6000848152602001908152602001600020600001546040516114d0906131b3565b60006040518083038185875af1925050503d806000811461150d576040519150601f19603f3d011682016040523d82523d6000602084013e611512565b606091505b5050905080611556576040517f08c379a000000000000000000000000000000000000000000000000000000000815260040161154d9061332c565b60405180910390fd5b600b6000838152602001908152602001600020600080820160009055600182016000905550505050565b606061158b82611f42565b9050919050565b6000600560008473ffffffffffffffffffffffffffffffffffffffff1673ffffffffffffffffffffffffffffffffffffffff16815260200190815260200160002060008373ffffffffffffffffffffffffffffffffffffffff1673ffffffffffffffffffffffffffffffffffffffff16815260200190815260200160002060009054906101000a900460ff16905092915050565b61162e611b8d565b600073ffffffffffffffffffffffffffffffffffffffff168173ffffffffffffffffffffffffffffffffffffffff16141561169e576040517f08c379a0000000000000000000000000000000000000000000000000000000008152600401611695906132cc565b60405180910390fd5b6116a781611c0b565b50565b600080600b6000848152602001908152602001600020600001549150600b6000848152602001908152602001600020600101549050915091565b6000600a6000838152602001908152602001600020549050919050565b60007f01ffc9a7000000000000000000000000000000000000000000000000000000007bffffffffffffffffffffffffffffffffffffffffffffffffffffffff1916827bffffffffffffffffffffffffffffffffffffffffffffffffffffffff1916149050919050565b61177481612055565b6117b3576040517f08c379a00000000000000000000000000000000000000000000000000000000081526004016117aa906134ac565b60405180910390fd5b50565b600033905090565b816004600083815260200190815260200160002060006101000a81548173ffffffffffffffffffffffffffffffffffffffff021916908373ffffffffffffffffffffffffffffffffffffffff160217905550808273ffffffffffffffffffffffffffffffffffffffff1661183183610e68565b73ffffffffffffffffffffffffffffffffffffffff167f8c5be1e5ebec7d5bd14f71427d1e84f3dd0314c0f7b2291e5b200ac8c7c3b92560405160405180910390a45050565b60008061188383610e68565b90508073ffffffffffffffffffffffffffffffffffffffff168473ffffffffffffffffffffffffffffffffffffffff1614806118c557506118c48185611592565b5b8061190357508373ffffffffffffffffffffffffffffffffffffffff166118eb8461081a565b73ffffffffffffffffffffffffffffffffffffffff16145b91505092915050565b8273ffffffffffffffffffffffffffffffffffffffff1661192c82610e68565b73ffffffffffffffffffffffffffffffffffffffff1614611982576040517f08c379a0000000000000000000000000000000000000000000000000000000008152600401611979906132ec565b60405180910390fd5b600073ffffffffffffffffffffffffffffffffffffffff168273ffffffffffffffffffffffffffffffffffffffff1614156119f2576040517f08c379a00000000000000000000000000000000000000000000000000000000081526004016119e99061336c565b60405180910390fd5b6119fd8383836120c1565b611a086000826117be565b6001600360008573ffffffffffffffffffffffffffffffffffffffff1673ffffffffffffffffffffffffffffffffffffffff1681526020019081526020016000206000828254611a58919061374c565b925050819055506001600360008473ffffffffffffffffffffffffffffffffffffffff1673ffffffffffffffffffffffffffffffffffffffff1681526020019081526020016000206000828254611aaf91906136c5565b92505081905550816002600083815260200190815260200160002060006101000a81548173ffffffffffffffffffffffffffffffffffffffff021916908373ffffffffffffffffffffffffffffffffffffffff160217905550808273ffffffffffffffffffffffffffffffffffffffff168473ffffffffffffffffffffffffffffffffffffffff167fddf252ad1be2c89b69c2b068fc378daa952ba7f163c4a11628f55a4df523b3ef60405160405180910390a4611b6e8383836120c6565b505050565b600081600001549050919050565b611b8a816120cb565b50565b611b956117b6565b73ffffffffffffffffffffffffffffffffffffffff16611bb36111ba565b73ffffffffffffffffffffffffffffffffffffffff1614611c09576040517f08c379a0000000000000000000000000000000000000000000000000000000008152600401611c009061346c565b60405180910390fd5b565b6000600760009054906101000a900473ffffffffffffffffffffffffffffffffffffffff16905081600760006101000a81548173ffffffffffffffffffffffffffffffffffffffff021916908373ffffffffffffffffffffffffffffffffffffffff1602179055508173ffffffffffffffffffffffffffffffffffffffff168173ffffffffffffffffffffffffffffffffffffffff167f8be0079c531659141344cd1fd0a4f28419497f9722a3daafe3b4186f6b6457e060405160405180910390a35050565b6001816000016000828254019250508190555050565b611d0182826040518060200160405280600081525061211e565b5050565b611d0e82612055565b611d4d576040517f08c379a0000000000000000000000000000000000000000000000000000000008152600401611d449061340c565b60405180910390fd5b80600660008481526020019081526020016000209080519060200190611d74929190612856565b505050565b8173ffffffffffffffffffffffffffffffffffffffff168373ffffffffffffffffffffffffffffffffffffffff161415611de8576040517f08c379a0000000000000000000000000000000000000000000000000000000008152600401611ddf9061338c565b60405180910390fd5b80600560008573ffffffffffffffffffffffffffffffffffffffff1673ffffffffffffffffffffffffffffffffffffffff16815260200190815260200160002060008473ffffffffffffffffffffffffffffffffffffffff1673ffffffffffffffffffffffffffffffffffffffff16815260200190815260200160002060006101000a81548160ff0219169083151502179055508173ffffffffffffffffffffffffffffffffffffffff168373ffffffffffffffffffffffffffffffffffffffff167f17307eab39ab6107e8899845ad3d59bd9653f200f220920489ca2b5937696c3183604051611ed9919061322f565b60405180910390a3505050565b611ef184848461190c565b611efd84848484612179565b611f3c576040517f08c379a0000000000000000000000000000000000000000000000000000000008152600401611f339061328c565b60405180910390fd5b50505050565b6060611f4d8261176b565b6000600660008481526020019081526020016000208054611f6d90613836565b80601f0160208091040260200160405190810160405280929190818152602001828054611f9990613836565b8015611fe65780601f10611fbb57610100808354040283529160200191611fe6565b820191906000526020600020905b815481529060010190602001808311611fc957829003601f168201915b505050505090506000611ff7612310565b905060008151141561200d578192505050612050565b60008251111561204257808260405160200161202a92919061318f565b60405160208183030381529060405292505050612050565b61204b84612327565b925050505b919050565b60008073ffffffffffffffffffffffffffffffffffffffff166002600084815260200190815260200160002060009054906101000a900473ffffffffffffffffffffffffffffffffffffffff1673ffffffffffffffffffffffffffffffffffffffff1614159050919050565b505050565b505050565b6120d48161238f565b60006006600083815260200190815260200160002080546120f490613836565b90501461211b5760066000828152602001908152602001600020600061211a91906128dc565b5b50565b61212883836124ac565b6121356000848484612179565b612174576040517f08c379a000000000000000000000000000000000000000000000000000000000815260040161216b9061328c565b60405180910390fd5b505050565b600061219a8473ffffffffffffffffffffffffffffffffffffffff16612686565b15612303578373ffffffffffffffffffffffffffffffffffffffff1663150b7a026121c36117b6565b8786866040518563ffffffff1660e01b81526004016121e594939291906131e3565b602060405180830381600087803b1580156121ff57600080fd5b505af192505050801561223057506040513d601f19601f8201168201806040525081019061222d9190612cd1565b60015b6122b3573d8060008114612260576040519150601f19603f3d011682016040523d82523d6000602084013e612265565b606091505b506000815114156122ab576040517f08c379a00000000000000000000000000000000000000000000000000000000081526004016122a29061328c565b60405180910390fd5b805181602001fd5b63150b7a0260e01b7bffffffffffffffffffffffffffffffffffffffffffffffffffffffff1916817bffffffffffffffffffffffffffffffffffffffffffffffffffffffff191614915050612308565b600190505b949350505050565b606060405180602001604052806000815250905090565b60606123328261176b565b600061233c612310565b9050600081511161235c5760405180602001604052806000815250612387565b80612366846126a9565b60405160200161237792919061318f565b6040516020818303038152906040525b915050919050565b600061239a82610e68565b90506123a8816000846120c1565b6123b36000836117be565b6001600360008373ffffffffffffffffffffffffffffffffffffffff1673ffffffffffffffffffffffffffffffffffffffff1681526020019081526020016000206000828254612403919061374c565b925050819055506002600083815260200190815260200160002060006101000a81549073ffffffffffffffffffffffffffffffffffffffff021916905581600073ffffffffffffffffffffffffffffffffffffffff168273ffffffffffffffffffffffffffffffffffffffff167fddf252ad1be2c89b69c2b068fc378daa952ba7f163c4a11628f55a4df523b3ef60405160405180910390a46124a8816000846120c6565b5050565b600073ffffffffffffffffffffffffffffffffffffffff168273ffffffffffffffffffffffffffffffffffffffff16141561251c576040517f08c379a00000000000000000000000000000000000000000000000000000000081526004016125139061344c565b60405180910390fd5b61252581612055565b15612565576040517f08c379a000000000000000000000000000000000000000000000000000000000815260040161255c9061330c565b60405180910390fd5b612571600083836120c1565b6001600360008473ffffffffffffffffffffffffffffffffffffffff1673ffffffffffffffffffffffffffffffffffffffff16815260200190815260200160002060008282546125c191906136c5565b92505081905550816002600083815260200190815260200160002060006101000a81548173ffffffffffffffffffffffffffffffffffffffff021916908373ffffffffffffffffffffffffffffffffffffffff160217905550808273ffffffffffffffffffffffffffffffffffffffff16600073ffffffffffffffffffffffffffffffffffffffff167fddf252ad1be2c89b69c2b068fc378daa952ba7f163c4a11628f55a4df523b3ef60405160405180910390a4612682600083836120c6565b5050565b6000808273ffffffffffffffffffffffffffffffffffffffff163b119050919050565b606060008214156126f1576040518060400160405280600181526020017f30000000000000000000000000000000000000000000000000000000000000008152509050612851565b600082905060005b6000821461272357808061270c90613899565b915050600a8261271c919061371b565b91506126f9565b60008167ffffffffffffffff811115612765577f4e487b7100000000000000000000000000000000000000000000000000000000600052604160045260246000fd5b6040519080825280601f01601f1916602001820160405280156127975781602001600182028036833780820191505090505b5090505b6000851461284a576001826127b0919061374c565b9150600a856127bf91906138e2565b60306127cb91906136c5565b60f81b818381518110612807577f4e487b7100000000000000000000000000000000000000000000000000000000600052603260045260246000fd5b60200101907effffffffffffffffffffffffffffffffffffffffffffffffffffffffffffff1916908160001a905350600a85612843919061371b565b945061279b565b8093505050505b919050565b82805461286290613836565b90600052602060002090601f01602090048101928261288457600085556128cb565b82601f1061289d57805160ff19168380011785556128cb565b828001600101855582156128cb579182015b828111156128ca5782518255916020019190600101906128af565b5b5090506128d8919061291c565b5090565b5080546128e890613836565b6000825580601f106128fa5750612919565b601f016020900490600052602060002090810190612918919061291c565b5b50565b5b8082111561293557600081600090555060010161291d565b5090565b600061294c61294784613615565b6135f0565b90508281526020810184848401111561296457600080fd5b61296f8482856137f4565b509392505050565b600061298a61298584613646565b6135f0565b9050828152602081018484840111156129a257600080fd5b6129ad8482856137f4565b509392505050565b6000813590506129c481613f34565b92915050565b6000813590506129d981613f4b565b92915050565b6000813590506129ee81613f62565b92915050565b600081519050612a0381613f62565b92915050565b600082601f830112612a1a57600080fd5b8135612a2a848260208601612939565b91505092915050565b600082601f830112612a4457600080fd5b8135612a54848260208601612977565b91505092915050565b600081359050612a6c81613f79565b92915050565b600060208284031215612a8457600080fd5b6000612a92848285016129b5565b91505092915050565b60008060408385031215612aae57600080fd5b6000612abc858286016129b5565b9250506020612acd858286016129b5565b9150509250929050565b600080600060608486031215612aec57600080fd5b6000612afa868287016129b5565b9350506020612b0b868287016129b5565b9250506040612b1c86828701612a5d565b9150509250925092565b60008060008060808587031215612b3c57600080fd5b6000612b4a878288016129b5565b9450506020612b5b878288016129b5565b9350506040612b6c87828801612a5d565b925050606085013567ffffffffffffffff811115612b8957600080fd5b612b9587828801612a09565b91505092959194509250565b60008060408385031215612bb457600080fd5b6000612bc2858286016129b5565b9250506020612bd3858286016129ca565b9150509250929050565b600080600080600060a08688031215612bf557600080fd5b6000612c03888289016129b5565b955050602086013567ffffffffffffffff811115612c2057600080fd5b612c2c88828901612a33565b9450506040612c3d888289016129b5565b9350506060612c4e88828901612a5d565b9250506080612c5f88828901612a5d565b9150509295509295909350565b60008060408385031215612c7f57600080fd5b6000612c8d858286016129b5565b9250506020612c9e85828601612a5d565b9150509250929050565b600060208284031215612cba57600080fd5b6000612cc8848285016129df565b91505092915050565b600060208284031215612ce357600080fd5b6000612cf1848285016129f4565b91505092915050565b600060208284031215612d0c57600080fd5b6000612d1a84828501612a5d565b91505092915050565b60008060408385031215612d3657600080fd5b6000612d4485828601612a5d565b925050602083013567ffffffffffffffff811115612d6157600080fd5b612d6d85828601612a33565b9150509250929050565b612d8081613780565b82525050565b612d8f81613792565b82525050565b6000612da082613677565b612daa818561368d565b9350612dba818560208601613803565b612dc3816139cf565b840191505092915050565b6000612dd982613682565b612de381856136a9565b9350612df3818560208601613803565b612dfc816139cf565b840191505092915050565b6000612e1282613682565b612e1c81856136ba565b9350612e2c818560208601613803565b80840191505092915050565b6000612e45601a836136a9565b9150612e50826139e0565b602082019050919050565b6000612e686032836136a9565b9150612e7382613a09565b604082019050919050565b6000612e8b6017836136a9565b9150612e9682613a58565b602082019050919050565b6000612eae6026836136a9565b9150612eb982613a81565b604082019050919050565b6000612ed16025836136a9565b9150612edc82613ad0565b604082019050919050565b6000612ef4601c836136a9565b9150612eff82613b1f565b602082019050919050565b6000612f17601c836136a9565b9150612f2282613b48565b602082019050919050565b6000612f3a601a836136a9565b9150612f4582613b71565b602082019050919050565b6000612f5d6024836136a9565b9150612f6882613b9a565b604082019050919050565b6000612f806019836136a9565b9150612f8b82613be9565b602082019050919050565b6000612fa36026836136a9565b9150612fae82613c12565b604082019050919050565b6000612fc66029836136a9565b9150612fd182613c61565b604082019050919050565b6000612fe96017836136a9565b9150612ff482613cb0565b602082019050919050565b600061300c602e836136a9565b915061301782613cd9565b604082019050919050565b600061302f603e836136a9565b915061303a82613d28565b604082019050919050565b60006130526020836136a9565b915061305d82613d77565b602082019050919050565b60006130756020836136a9565b915061308082613da0565b602082019050919050565b60006130986020836136a9565b91506130a382613dc9565b602082019050919050565b60006130bb6018836136a9565b91506130c682613df2565b602082019050919050565b60006130de6021836136a9565b91506130e982613e1b565b604082019050919050565b6000613101601c836136a9565b915061310c82613e6a565b602082019050919050565b600061312460008361369e565b915061312f82613e93565b600082019050919050565b60006131476029836136a9565b915061315282613e96565b604082019050919050565b600061316a602e836136a9565b915061317582613ee5565b604082019050919050565b613189816137ea565b82525050565b600061319b8285612e07565b91506131a78284612e07565b91508190509392505050565b60006131be82613117565b9150819050919050565b60006020820190506131dd6000830184612d77565b92915050565b60006080820190506131f86000830187612d77565b6132056020830186612d77565b6132126040830185613180565b81810360608301526132248184612d95565b905095945050505050565b60006020820190506132446000830184612d86565b92915050565b600060208201905081810360008301526132648184612dce565b905092915050565b6000602082019050818103600083015261328581612e38565b9050919050565b600060208201905081810360008301526132a581612e5b565b9050919050565b600060208201905081810360008301526132c581612e7e565b9050919050565b600060208201905081810360008301526132e581612ea1565b9050919050565b6000602082019050818103600083015261330581612ec4565b9050919050565b6000602082019050818103600083015261332581612ee7565b9050919050565b6000602082019050818103600083015261334581612f0a565b9050919050565b6000602082019050818103600083015261336581612f2d565b9050919050565b6000602082019050818103600083015261338581612f50565b9050919050565b600060208201905081810360008301526133a581612f73565b9050919050565b600060208201905081810360008301526133c581612f96565b9050919050565b600060208201905081810360008301526133e581612fb9565b9050919050565b6000602082019050818103600083015261340581612fdc565b9050919050565b6000602082019050818103600083015261342581612fff565b9050919050565b6000602082019050818103600083015261344581613022565b9050919050565b6000602082019050818103600083015261346581613045565b9050919050565b6000602082019050818103600083015261348581613068565b9050919050565b600060208201905081810360008301526134a58161308b565b9050919050565b600060208201905081810360008301526134c5816130ae565b9050919050565b600060208201905081810360008301526134e5816130d1565b9050919050565b60006020820190508181036000830152613505816130f4565b9050919050565b600060208201905081810360008301526135258161313a565b9050919050565b600060208201905081810360008301526135458161315d565b9050919050565b60006020820190506135616000830184613180565b92915050565b600060408201905061357c6000830185613180565b6135896020830184612d77565b9392505050565b60006040820190506135a56000830185613180565b6135b26020830184613180565b9392505050565b60006060820190506135ce6000830186613180565b6135db6020830185613180565b6135e86040830184612d77565b949350505050565b60006135fa61360b565b90506136068282613868565b919050565b6000604051905090565b600067ffffffffffffffff8211156136305761362f6139a0565b5b613639826139cf565b9050602081019050919050565b600067ffffffffffffffff821115613661576136606139a0565b5b61366a826139cf565b9050602081019050919050565b600081519050919050565b600081519050919050565b600082825260208201905092915050565b600081905092915050565b600082825260208201905092915050565b600081905092915050565b60006136d0826137ea565b91506136db836137ea565b9250827fffffffffffffffffffffffffffffffffffffffffffffffffffffffffffffffff038211156137105761370f613913565b5b828201905092915050565b6000613726826137ea565b9150613731836137ea565b92508261374157613740613942565b5b828204905092915050565b6000613757826137ea565b9150613762836137ea565b92508282101561377557613774613913565b5b828203905092915050565b600061378b826137ca565b9050919050565b60008115159050919050565b60007fffffffff0000000000000000000000000000000000000000000000000000000082169050919050565b600073ffffffffffffffffffffffffffffffffffffffff82169050919050565b6000819050919050565b82818337600083830152505050565b60005b83811015613821578082015181840152602081019050613806565b83811115613830576000848401525b50505050565b6000600282049050600182168061384e57607f821691505b6020821081141561386257613861613971565b5b50919050565b613871826139cf565b810181811067ffffffffffffffff821117156138905761388f6139a0565b5b80604052505050565b60006138a4826137ea565b91507fffffffffffffffffffffffffffffffffffffffffffffffffffffffffffffffff8214156138d7576138d6613913565b5b600182019050919050565b60006138ed826137ea565b91506138f8836137ea565b92508261390857613907613942565b5b828206905092915050565b7f4e487b7100000000000000000000000000000000000000000000000000000000600052601160045260246000fd5b7f4e487b7100000000000000000000000000000000000000000000000000000000600052601260045260246000fd5b7f4e487b7100000000000000000000000000000000000000000000000000000000600052602260045260246000fd5b7f4e487b7100000000000000000000000000000000000000000000000000000000600052604160045260246000fd5b6000601f19601f8301169050919050565b7f57617272616e747920706572696f64206973206f766572202121000000000000600082015250565b7f4552433732313a207472616e7366657220746f206e6f6e20455243373231526560008201527f63656976657220696d706c656d656e7465720000000000000000000000000000602082015250565b7f4f6e6c792073656c6c6572207265717569726564202121000000000000000000600082015250565b7f4f776e61626c653a206e6577206f776e657220697320746865207a65726f206160008201527f6464726573730000000000000000000000000000000000000000000000000000602082015250565b7f4552433732313a207472616e736665722066726f6d20696e636f72726563742060008201527f6f776e6572000000000000000000000000000000000000000000000000000000602082015250565b7f4552433732313a20746f6b656e20616c7265616479206d696e74656400000000600082015250565b7f4d6f6e6579205472616e7366657272696e67206661696c656420212100000000600082015250565b7f4d6f6e657920616c72656164792077697468647261776e202121000000000000600082015250565b7f4552433732313a207472616e7366657220746f20746865207a65726f2061646460008201527f7265737300000000000000000000000000000000000000000000000000000000602082015250565b7f4552433732313a20617070726f766520746f2063616c6c657200000000000000600082015250565b7f4d6f6e6579207472616e73666572726564206261636b2073756363657373667560008201527f6c6c792021210000000000000000000000000000000000000000000000000000602082015250565b7f4552433732313a2061646472657373207a65726f206973206e6f74206120766160008201527f6c6964206f776e65720000000000000000000000000000000000000000000000602082015250565b7f596f7520617265206e6f7420617070726f766564202121000000000000000000600082015250565b7f45524337323155524953746f726167653a2055524920736574206f66206e6f6e60008201527f6578697374656e7420746f6b656e000000000000000000000000000000000000602082015250565b7f4552433732313a20617070726f76652063616c6c6572206973206e6f7420746f60008201527f6b656e206f776e6572206e6f7220617070726f76656420666f7220616c6c0000602082015250565b7f4552433732313a206d696e7420746f20746865207a65726f2061646472657373600082015250565b7f4f776e61626c653a2063616c6c6572206973206e6f7420746865206f776e6572600082015250565b7f52657475726e20706572696f64206973206f76657220616c7265616479202121600082015250565b7f4552433732313a20696e76616c696420746f6b656e2049440000000000000000600082015250565b7f4552433732313a20617070726f76616c20746f2063757272656e74206f776e6560008201527f7200000000000000000000000000000000000000000000000000000000000000602082015250565b7f52657475726e20706572696f64206973206e6f74206f76657220212100000000600082015250565b50565b7f4f6e6c792073656c6c6572206f66207468652070726f6475637420697320726560008201527f7175697265642021210000000000000000000000000000000000000000000000602082015250565b7f4552433732313a2063616c6c6572206973206e6f7420746f6b656e206f776e6560008201527f72206e6f7220617070726f766564000000000000000000000000000000000000602082015250565b613f3d81613780565b8114613f4857600080fd5b50565b613f5481613792565b8114613f5f57600080fd5b50565b613f6b8161379e565b8114613f7657600080fd5b50565b613f82816137ea565b8114613f8d57600080fd5b5056fea2646970667358221220d88eaf60688222211055b244cb366658ac9fa5ccc36143605e9614b96ec50b2f64736f6c63430008040033",
  "linkReferences": {},
  "deployedLinkReferences": {}
}